{
  "contractName": "Pong",
  "abi": [
    {
      "constant": true,
      "inputs": [],
      "name": "platformX",
      "outputs": [
        {
          "name": "",
          "type": "uint256"
        }
      ],
      "payable": false,
      "stateMutability": "view",
      "type": "function"
    },
    {
      "constant": true,
      "inputs": [],
      "name": "MAX_POINT",
      "outputs": [
        {
          "name": "",
          "type": "uint256"
        }
      ],
      "payable": false,
      "stateMutability": "view",
      "type": "function"
    },
    {
      "constant": true,
      "inputs": [
        {
          "name": "",
          "type": "bytes32"
        }
      ],
      "name": "games",
      "outputs": [
        {
          "name": "status",
          "type": "bool"
        },
        {
          "name": "name",
          "type": "string"
        },
        {
          "name": "bid",
          "type": "uint256"
        },
        {
          "name": "player1",
          "type": "address"
        },
        {
          "name": "x1",
          "type": "uint256"
        },
        {
          "name": "player2",
          "type": "address"
        },
        {
          "name": "x2",
          "type": "uint256"
        },
        {
          "name": "ball",
          "type": "address"
        },
        {
          "name": "points1",
          "type": "uint256"
        },
        {
          "name": "points2",
          "type": "uint256"
        }
      ],
      "payable": false,
      "stateMutability": "view",
      "type": "function"
    },
    {
      "inputs": [],
      "payable": false,
      "stateMutability": "nonpayable",
      "type": "constructor"
    },
    {
      "anonymous": false,
      "inputs": [
        {
          "indexed": false,
          "name": "name",
          "type": "string"
        },
        {
          "indexed": false,
          "name": "player1",
          "type": "address"
        },
        {
          "indexed": false,
          "name": "bid",
          "type": "uint256"
        },
        {
          "indexed": false,
          "name": "ball",
          "type": "address"
        }
      ],
      "name": "RoomCreated",
      "type": "event"
    },
    {
      "constant": false,
      "inputs": [
        {
          "name": "roomName",
          "type": "string"
        },
        {
          "name": "ballAddress",
          "type": "address"
        }
      ],
      "name": "createMultiPlayerGame",
      "outputs": [],
      "payable": true,
      "stateMutability": "payable",
      "type": "function"
    },
    {
      "constant": false,
      "inputs": [
        {
          "name": "roomName",
          "type": "string"
        }
      ],
      "name": "joinMultiPlayerGame",
      "outputs": [],
      "payable": true,
      "stateMutability": "payable",
      "type": "function"
    },
    {
      "constant": false,
      "inputs": [
        {
          "name": "gameIndex",
          "type": "bytes32"
        },
        {
          "name": "x",
          "type": "uint256"
        }
      ],
      "name": "movePlatform",
      "outputs": [],
      "payable": false,
      "stateMutability": "nonpayable",
      "type": "function"
    },
    {
      "constant": false,
      "inputs": [
        {
          "name": "x",
          "type": "uint256"
        }
      ],
      "name": "testMovePlatform",
      "outputs": [],
      "payable": false,
      "stateMutability": "nonpayable",
      "type": "function"
    }
  ],
  "bytecode": "0x60806040526101c260005534801561001657600080fd5b50610f2e806100266000396000f300608060405260043610610083576000357c0100000000000000000000000000000000000000000000000000000000900463ffffffff1680633c4bc6f71461008857806349b62745146100b357806379bb16c5146100ee57806385d89ed01461016a57806391e562eb14610197578063eb8fcba6146101c2578063f579f8821461021e575b600080fd5b34801561009457600080fd5b5061009d61038f565b6040518082815260200191505060405180910390f35b3480156100bf57600080fd5b506100ec600480360381019080803560001916906020019092919080359060200190929190505050610395565b005b610168600480360381019080803590602001908201803590602001908080601f0160208091040260200160405190810160405280939291908181526020018383808284378201915050505050509192919290803573ffffffffffffffffffffffffffffffffffffffff1690602001909291905050506104d3565b005b34801561017657600080fd5b506101956004803603810190808035906020019092919050505061094d565b005b3480156101a357600080fd5b506101ac610957565b6040518082815260200191505060405180910390f35b61021c600480360381019080803590602001908201803590602001908080601f016020809104026020016040519081016040528093929190818152602001838380828437820191505050505050919291929050505061095c565b005b34801561022a57600080fd5b5061024d6004803603810190808035600019169060200190929190505050610d04565b604051808b151515158152602001806020018a81526020018973ffffffffffffffffffffffffffffffffffffffff1673ffffffffffffffffffffffffffffffffffffffff1681526020018881526020018773ffffffffffffffffffffffffffffffffffffffff1673ffffffffffffffffffffffffffffffffffffffff1681526020018681526020018573ffffffffffffffffffffffffffffffffffffffff1673ffffffffffffffffffffffffffffffffffffffff16815260200184815260200183815260200182810382528b818151815260200191508051906020019080838360005b8381101561034b578082015181840152602081019050610330565b50505050905090810190601f1680156103785780820380516001836020036101000a031916815260200191505b509b50505050505050505050505060405180910390f35b60005481565b3373ffffffffffffffffffffffffffffffffffffffff1660016000846000191660001916815260200190815260200160002060030160009054906101000a900473ffffffffffffffffffffffffffffffffffffffff1673ffffffffffffffffffffffffffffffffffffffff16141561042f5780600160008460001916600019168152602001908152602001600020600401819055506104cf565b3373ffffffffffffffffffffffffffffffffffffffff1660016000846000191660001916815260200190815260200160002060050160009054906101000a900473ffffffffffffffffffffffffffffffffffffffff1673ffffffffffffffffffffffffffffffffffffffff1614156104c95780600160008460001916600019168152602001908152602001600020600601819055506104ce565b600080fd5b5b5050565b6000826040516020018082805190602001908083835b60208310151561050e57805182526020820191506020810190506020830392506104e9565b6001836020036101000a0380198251168184511680821785525050505050509050019150506040516020818303038152906040526040518082805190602001908083835b6020831015156105775780518252602082019150602081019050602083039250610552565b6001836020036101000a0380198251168184511680821785525050505050509050019150506040518091039020905060016000826000191660001916815260200190815260200160002060000160009054906101000a900460ff16151515610647576040517f08c379a000000000000000000000000000000000000000000000000000000000815260040180806020018281038252600e8152602001807f526f6f6d2069732061637469766500000000000000000000000000000000000081525060200191505060405180910390fd5b610140604051908101604052806001151581526020018481526020013481526020013373ffffffffffffffffffffffffffffffffffffffff16815260200160008152602001600073ffffffffffffffffffffffffffffffffffffffff168152602001600081526020018373ffffffffffffffffffffffffffffffffffffffff16815260200160008152602001600081525060016000836000191660001916815260200190815260200160002060008201518160000160006101000a81548160ff021916908315150217905550602082015181600101908051906020019061072f929190610e5d565b506040820151816002015560608201518160030160006101000a81548173ffffffffffffffffffffffffffffffffffffffff021916908373ffffffffffffffffffffffffffffffffffffffff1602179055506080820151816004015560a08201518160050160006101000a81548173ffffffffffffffffffffffffffffffffffffffff021916908373ffffffffffffffffffffffffffffffffffffffff16021790555060c0820151816006015560e08201518160070160006101000a81548173ffffffffffffffffffffffffffffffffffffffff021916908373ffffffffffffffffffffffffffffffffffffffff160217905550610100820151816008015561012082015181600901559050507f02cfeb34b6e8712ded5477d4cc392d2be4b4a464dde4c336b7c6fc97d47db7ae8333348560405180806020018573ffffffffffffffffffffffffffffffffffffffff1673ffffffffffffffffffffffffffffffffffffffff1681526020018481526020018373ffffffffffffffffffffffffffffffffffffffff1673ffffffffffffffffffffffffffffffffffffffff168152602001828103825286818151815260200191508051906020019080838360005b8381101561090b5780820151818401526020810190506108f0565b50505050905090810190601f1680156109385780820380516001836020036101000a031916815260200191505b509550505050505060405180910390a1505050565b8060008190555050565b600381565b6000816040516020018082805190602001908083835b6020831015156109975780518252602082019150602081019050602083039250610972565b6001836020036101000a0380198251168184511680821785525050505050509050019150506040516020818303038152906040526040518082805190602001908083835b602083101515610a0057805182526020820191506020810190506020830392506109db565b6001836020036101000a0380198251168184511680821785525050505050509050019150506040518091039020905060016000826000191660001916815260200190815260200160002060000160009054906101000a900460ff161515610acf576040517f08c379a00000000000000000000000000000000000000000000000000000000081526004018080602001828103825260128152602001807f526f6f6d206973206e6f7420616374697665000000000000000000000000000081525060200191505060405180910390fd5b600073ffffffffffffffffffffffffffffffffffffffff1660016000836000191660001916815260200190815260200160002060050160009054906101000a900473ffffffffffffffffffffffffffffffffffffffff1673ffffffffffffffffffffffffffffffffffffffff16141515610bb1576040517f08c379a000000000000000000000000000000000000000000000000000000000815260040180806020018281038252600c8152602001807f526f6f6d2069732062757379000000000000000000000000000000000000000081525060200191505060405180910390fd5b3460016000836000191660001916815260200190815260200160002060020154141515610c6c576040517f08c379a00000000000000000000000000000000000000000000000000000000081526004018080602001828103825260218152602001807f596f757220626964206973206e6f7420657175616c20746f2067616d6520626981526020017f640000000000000000000000000000000000000000000000000000000000000081525060400191505060405180910390fd5b3360016000836000191660001916815260200190815260200160002060050160006101000a81548173ffffffffffffffffffffffffffffffffffffffff021916908373ffffffffffffffffffffffffffffffffffffffff160217905550600060016000836000191660001916815260200190815260200160002060000160006101000a81548160ff0219169083151502179055505050565b60016020528060005260406000206000915090508060000160009054906101000a900460ff1690806001018054600181600116156101000203166002900480601f016020809104026020016040519081016040528092919081815260200182805460018160011615610100020316600290048015610dc35780601f10610d9857610100808354040283529160200191610dc3565b820191906000526020600020905b815481529060010190602001808311610da657829003601f168201915b5050505050908060020154908060030160009054906101000a900473ffffffffffffffffffffffffffffffffffffffff16908060040154908060050160009054906101000a900473ffffffffffffffffffffffffffffffffffffffff16908060060154908060070160009054906101000a900473ffffffffffffffffffffffffffffffffffffffff1690806008015490806009015490508a565b828054600181600116156101000203166002900490600052602060002090601f016020900481019282601f10610e9e57805160ff1916838001178555610ecc565b82800160010185558215610ecc579182015b82811115610ecb578251825591602001919060010190610eb0565b5b509050610ed99190610edd565b5090565b610eff91905b80821115610efb576000816000905550600101610ee3565b5090565b905600a165627a7a72305820f39e308d2c3bdafcf19379280a16a6540258049289233306bd95284bba2a5b1f0029",
  "source": "pragma solidity >=0.4.24;\n\ncontract Pong {\n\n  uint public constant MAX_POINT = 3;\n\n  struct MultiPlayer {\n    bool status;\n    string name;\n    uint bid;\n    address player1;\n    uint x1;\n    address player2;\n    uint x2;\n    address ball;\n    uint points1;\n    uint points2;\n  }\n\n  uint public platformX = 450;\n\n  mapping(bytes32 => MultiPlayer) public games;\n\n  event RoomCreated (\n    string name,\n    address player1,\n    uint bid,\n    address ball\n  );\n\n  constructor () {\n\n  }\n\n  function createMultiPlayerGame(string roomName, address ballAddress) public payable {\n    bytes32 index = keccak256(abi.encodePacked(roomName));\n    require(!games[index].status, \"Room is active\");\n    games[index] = MultiPlayer({\n      status: true,\n      name: roomName,\n      bid: msg.value,\n      player1: msg.sender,\n      x1: 0,\n      player2: address(0),\n      x2: 0,\n      ball: ballAddress,\n      points1: 0,\n      points2: 0\n    });\n    emit RoomCreated(roomName, msg.sender, msg.value, ballAddress);\n  }\n\n  function joinMultiPlayerGame(string roomName) public payable {\n    bytes32 index = keccak256(abi.encodePacked(roomName));\n    require(games[index].status, \"Room is not active\");\n    require(games[index].player2 == address(0), \"Room is busy\");\n    require(games[index].bid == msg.value, \"Your bid is not equal to game bid\");\n    games[index].player2 = msg.sender;\n    games[index].status = false;\n  }\n\n  /*function ballAtPlatformPlace(string roomName, uint x, uint y) public returns (bool) {\n    bytes32 index = keccak256(abi.encodePacked(roomName));\n    require(games[index].status, \"Room is not active\");\n    require(games[index].player2 != address(0), \"Game is not started\");\n    require(games[index].ball == msg.sender, \"Sender is not a ball\");\n    if (y == 0) {\n      if (games[index].x1 + 50 <= x && games[index].x1 - 50 >= x) [\n        return true;\n      ] else return false;\n    } else if (y == 1000) {\n      if (games[index].x2 + 50 <= x && games[index].x2 - 50 >= x) [\n        return true;\n      ] else return false;\n    } else {\n      revert();\n    }\n\n  }*/\n\n  function movePlatform(bytes32 gameIndex, uint x) {\n      if (games[gameIndex].player1 == msg.sender) {\n        games[gameIndex].x1 = x;\n      } else if (games[gameIndex].player2 == msg.sender) {\n        games[gameIndex].x2 = x;\n      } else {\n        revert();\n      }\n  }\n\n  function testMovePlatform(uint x) {\n    platformX = x;\n  }\n\n}\n",
  "sourcePath": "/Users/payvint/Documents/Blockchain/skale-pong/contracts/Pong.sol",
  "compiler": {
    "name": "solc",
    "version": "0.4.24+commit.e67f0147.Emscripten.clang"
  },
  "schemaVersion": "2.0.1",
  "updatedAt": "2019-03-06T10:26:56.890Z"
}